{
  "_format": "hh-sol-artifact-1",
  "contractName": "TheHMI",
  "sourceName": "contracts/TheHMI.sol",
  "abi": [
    {
      "inputs": [],
      "stateMutability": "nonpayable",
      "type": "constructor"
    },
    {
      "anonymous": false,
      "inputs": [
        {
          "indexed": true,
          "internalType": "address",
          "name": "owner",
          "type": "address"
        },
        {
          "indexed": true,
          "internalType": "address",
          "name": "approved",
          "type": "address"
        },
        {
          "indexed": true,
          "internalType": "uint256",
          "name": "tokenId",
          "type": "uint256"
        }
      ],
      "name": "Approval",
      "type": "event"
    },
    {
      "anonymous": false,
      "inputs": [
        {
          "indexed": true,
          "internalType": "address",
          "name": "owner",
          "type": "address"
        },
        {
          "indexed": true,
          "internalType": "address",
          "name": "operator",
          "type": "address"
        },
        {
          "indexed": false,
          "internalType": "bool",
          "name": "approved",
          "type": "bool"
        }
      ],
      "name": "ApprovalForAll",
      "type": "event"
    },
    {
      "anonymous": false,
      "inputs": [
        {
          "indexed": true,
          "internalType": "address",
          "name": "previousOwner",
          "type": "address"
        },
        {
          "indexed": true,
          "internalType": "address",
          "name": "newOwner",
          "type": "address"
        }
      ],
      "name": "OwnershipTransferred",
      "type": "event"
    },
    {
      "anonymous": false,
      "inputs": [
        {
          "indexed": false,
          "internalType": "address",
          "name": "account",
          "type": "address"
        }
      ],
      "name": "Paused",
      "type": "event"
    },
    {
      "anonymous": false,
      "inputs": [
        {
          "indexed": true,
          "internalType": "address",
          "name": "from",
          "type": "address"
        },
        {
          "indexed": true,
          "internalType": "address",
          "name": "to",
          "type": "address"
        },
        {
          "indexed": true,
          "internalType": "uint256",
          "name": "tokenId",
          "type": "uint256"
        }
      ],
      "name": "Transfer",
      "type": "event"
    },
    {
      "anonymous": false,
      "inputs": [
        {
          "indexed": false,
          "internalType": "address",
          "name": "account",
          "type": "address"
        }
      ],
      "name": "Unpaused",
      "type": "event"
    },
    {
      "inputs": [],
      "name": "MAX_SUPPLY",
      "outputs": [
        {
          "internalType": "uint256",
          "name": "",
          "type": "uint256"
        }
      ],
      "stateMutability": "view",
      "type": "function"
    },
    {
      "inputs": [],
      "name": "MINT_PRICE",
      "outputs": [
        {
          "internalType": "uint256",
          "name": "",
          "type": "uint256"
        }
      ],
      "stateMutability": "view",
      "type": "function"
    },
    {
      "inputs": [
        {
          "internalType": "address",
          "name": "to",
          "type": "address"
        },
        {
          "internalType": "uint256",
          "name": "tokenId",
          "type": "uint256"
        }
      ],
      "name": "approve",
      "outputs": [],
      "stateMutability": "nonpayable",
      "type": "function"
    },
    {
      "inputs": [
        {
          "internalType": "address",
          "name": "owner",
          "type": "address"
        }
      ],
      "name": "balanceOf",
      "outputs": [
        {
          "internalType": "uint256",
          "name": "",
          "type": "uint256"
        }
      ],
      "stateMutability": "view",
      "type": "function"
    },
    {
      "inputs": [
        {
          "internalType": "uint256",
          "name": "tokenId",
          "type": "uint256"
        }
      ],
      "name": "getApproved",
      "outputs": [
        {
          "internalType": "address",
          "name": "",
          "type": "address"
        }
      ],
      "stateMutability": "view",
      "type": "function"
    },
    {
      "inputs": [
        {
          "internalType": "address",
          "name": "owner",
          "type": "address"
        },
        {
          "internalType": "address",
          "name": "operator",
          "type": "address"
        }
      ],
      "name": "isApprovedForAll",
      "outputs": [
        {
          "internalType": "bool",
          "name": "",
          "type": "bool"
        }
      ],
      "stateMutability": "view",
      "type": "function"
    },
    {
      "inputs": [],
      "name": "name",
      "outputs": [
        {
          "internalType": "string",
          "name": "",
          "type": "string"
        }
      ],
      "stateMutability": "view",
      "type": "function"
    },
    {
      "inputs": [],
      "name": "owner",
      "outputs": [
        {
          "internalType": "address",
          "name": "",
          "type": "address"
        }
      ],
      "stateMutability": "view",
      "type": "function"
    },
    {
      "inputs": [
        {
          "internalType": "uint256",
          "name": "tokenId",
          "type": "uint256"
        }
      ],
      "name": "ownerOf",
      "outputs": [
        {
          "internalType": "address",
          "name": "",
          "type": "address"
        }
      ],
      "stateMutability": "view",
      "type": "function"
    },
    {
      "inputs": [],
      "name": "pause",
      "outputs": [],
      "stateMutability": "nonpayable",
      "type": "function"
    },
    {
      "inputs": [],
      "name": "paused",
      "outputs": [
        {
          "internalType": "bool",
          "name": "",
          "type": "bool"
        }
      ],
      "stateMutability": "view",
      "type": "function"
    },
    {
      "inputs": [],
      "name": "renounceOwnership",
      "outputs": [],
      "stateMutability": "nonpayable",
      "type": "function"
    },
    {
      "inputs": [
        {
          "internalType": "address",
          "name": "to",
          "type": "address"
        }
      ],
      "name": "safeMint",
      "outputs": [],
      "stateMutability": "payable",
      "type": "function"
    },
    {
      "inputs": [
        {
          "internalType": "address",
          "name": "from",
          "type": "address"
        },
        {
          "internalType": "address",
          "name": "to",
          "type": "address"
        },
        {
          "internalType": "uint256",
          "name": "tokenId",
          "type": "uint256"
        }
      ],
      "name": "safeTransferFrom",
      "outputs": [],
      "stateMutability": "nonpayable",
      "type": "function"
    },
    {
      "inputs": [
        {
          "internalType": "address",
          "name": "from",
          "type": "address"
        },
        {
          "internalType": "address",
          "name": "to",
          "type": "address"
        },
        {
          "internalType": "uint256",
          "name": "tokenId",
          "type": "uint256"
        },
        {
          "internalType": "bytes",
          "name": "_data",
          "type": "bytes"
        }
      ],
      "name": "safeTransferFrom",
      "outputs": [],
      "stateMutability": "nonpayable",
      "type": "function"
    },
    {
      "inputs": [
        {
          "internalType": "address",
          "name": "operator",
          "type": "address"
        },
        {
          "internalType": "bool",
          "name": "approved",
          "type": "bool"
        }
      ],
      "name": "setApprovalForAll",
      "outputs": [],
      "stateMutability": "nonpayable",
      "type": "function"
    },
    {
      "inputs": [
        {
          "internalType": "bytes4",
          "name": "interfaceId",
          "type": "bytes4"
        }
      ],
      "name": "supportsInterface",
      "outputs": [
        {
          "internalType": "bool",
          "name": "",
          "type": "bool"
        }
      ],
      "stateMutability": "view",
      "type": "function"
    },
    {
      "inputs": [],
      "name": "symbol",
      "outputs": [
        {
          "internalType": "string",
          "name": "",
          "type": "string"
        }
      ],
      "stateMutability": "view",
      "type": "function"
    },
    {
      "inputs": [
        {
          "internalType": "uint256",
          "name": "index",
          "type": "uint256"
        }
      ],
      "name": "tokenByIndex",
      "outputs": [
        {
          "internalType": "uint256",
          "name": "",
          "type": "uint256"
        }
      ],
      "stateMutability": "view",
      "type": "function"
    },
    {
      "inputs": [
        {
          "internalType": "address",
          "name": "owner",
          "type": "address"
        },
        {
          "internalType": "uint256",
          "name": "index",
          "type": "uint256"
        }
      ],
      "name": "tokenOfOwnerByIndex",
      "outputs": [
        {
          "internalType": "uint256",
          "name": "",
          "type": "uint256"
        }
      ],
      "stateMutability": "view",
      "type": "function"
    },
    {
      "inputs": [
        {
          "internalType": "uint256",
          "name": "tokenId",
          "type": "uint256"
        }
      ],
      "name": "tokenURI",
      "outputs": [
        {
          "internalType": "string",
          "name": "",
          "type": "string"
        }
      ],
      "stateMutability": "view",
      "type": "function"
    },
    {
      "inputs": [],
      "name": "totalSupply",
      "outputs": [
        {
          "internalType": "uint256",
          "name": "",
          "type": "uint256"
        }
      ],
      "stateMutability": "view",
      "type": "function"
    },
    {
      "inputs": [
        {
          "internalType": "address",
          "name": "from",
          "type": "address"
        },
        {
          "internalType": "address",
          "name": "to",
          "type": "address"
        },
        {
          "internalType": "uint256",
          "name": "tokenId",
          "type": "uint256"
        }
      ],
      "name": "transferFrom",
      "outputs": [],
      "stateMutability": "nonpayable",
      "type": "function"
    },
    {
      "inputs": [
        {
          "internalType": "address",
          "name": "newOwner",
          "type": "address"
        }
      ],
      "name": "transferOwnership",
      "outputs": [],
      "stateMutability": "nonpayable",
      "type": "function"
    },
    {
      "inputs": [],
      "name": "unpause",
      "outputs": [],
      "stateMutability": "nonpayable",
      "type": "function"
    },
    {
      "inputs": [],
      "name": "withdraw",
      "outputs": [],
      "stateMutability": "nonpayable",
      "type": "function"
    }
  ],
  "bytecode": "0x608060405266b1a2bc2ec50000600c556064600d553480156200002157600080fd5b506040518060400160405280600681526020017f546865484d4900000000000000000000000000000000000000000000000000008152506040518060400160405280600281526020017f54480000000000000000000000000000000000000000000000000000000000008152508160009080519060200190620000a6929190620001fe565b508060019080519060200190620000bf929190620001fe565b5050506000600a60006101000a81548160ff021916908315150217905550620000fd620000f16200011a60201b60201c565b6200012260201b60201c565b62000114600b620001e860201b620012601760201c565b62000313565b600033905090565b6000600a60019054906101000a900473ffffffffffffffffffffffffffffffffffffffff16905081600a60016101000a81548173ffffffffffffffffffffffffffffffffffffffff021916908373ffffffffffffffffffffffffffffffffffffffff1602179055508173ffffffffffffffffffffffffffffffffffffffff168173ffffffffffffffffffffffffffffffffffffffff167f8be0079c531659141344cd1fd0a4f28419497f9722a3daafe3b4186f6b6457e060405160405180910390a35050565b6001816000016000828254019250508190555050565b8280546200020c90620002ae565b90600052602060002090601f0160209004810192826200023057600085556200027c565b82601f106200024b57805160ff19168380011785556200027c565b828001600101855582156200027c579182015b828111156200027b5782518255916020019190600101906200025e565b5b5090506200028b91906200028f565b5090565b5b80821115620002aa57600081600090555060010162000290565b5090565b60006002820490506001821680620002c757607f821691505b60208210811415620002de57620002dd620002e4565b5b50919050565b7f4e487b7100000000000000000000000000000000000000000000000000000000600052602260045260246000fd5b613c4280620003236000396000f3fe6080604052600436106101815760003560e01c80635c975abb116100d157806395d89b411161008a578063c002d23d11610064578063c002d23d1461053b578063c87b56dd14610566578063e985e9c5146105a3578063f2fde38b146105e057610181565b806395d89b41146104be578063a22cb465146104e9578063b88d4fde1461051257610181565b80635c975abb146103c05780636352211e146103eb57806370a0823114610428578063715018a6146104655780638456cb591461047c5780638da5cb5b1461049357610181565b80632f745c591161013e5780633f4ba83a116101185780633f4ba83a1461032757806340d097c31461033e57806342842e0e1461035a5780634f6ccce71461038357610181565b80632f745c59146102a857806332cb6b0c146102e55780633ccfd60b1461031057610181565b806301ffc9a71461018657806306fdde03146101c3578063081812fc146101ee578063095ea7b31461022b57806318160ddd1461025457806323b872dd1461027f575b600080fd5b34801561019257600080fd5b506101ad60048036038101906101a891906129d0565b610609565b6040516101ba9190612ecb565b60405180910390f35b3480156101cf57600080fd5b506101d861061b565b6040516101e59190612ee6565b60405180910390f35b3480156101fa57600080fd5b5061021560048036038101906102109190612a22565b6106ad565b6040516102229190612e64565b60405180910390f35b34801561023757600080fd5b50610252600480360381019061024d9190612994565b610732565b005b34801561026057600080fd5b5061026961084a565b60405161027691906131e8565b60405180910390f35b34801561028b57600080fd5b506102a660048036038101906102a1919061288e565b610857565b005b3480156102b457600080fd5b506102cf60048036038101906102ca9190612994565b6108b7565b6040516102dc91906131e8565b60405180910390f35b3480156102f157600080fd5b506102fa61095c565b60405161030791906131e8565b60405180910390f35b34801561031c57600080fd5b50610325610962565b005b34801561033357600080fd5b5061033c610a71565b005b61035860048036038101906103539190612829565b610af7565b005b34801561036657600080fd5b50610381600480360381019061037c919061288e565b610bad565b005b34801561038f57600080fd5b506103aa60048036038101906103a59190612a22565b610bcd565b6040516103b791906131e8565b60405180910390f35b3480156103cc57600080fd5b506103d5610c64565b6040516103e29190612ecb565b60405180910390f35b3480156103f757600080fd5b50610412600480360381019061040d9190612a22565b610c7b565b60405161041f9190612e64565b60405180910390f35b34801561043457600080fd5b5061044f600480360381019061044a9190612829565b610d2d565b60405161045c91906131e8565b60405180910390f35b34801561047157600080fd5b5061047a610de5565b005b34801561048857600080fd5b50610491610e6d565b005b34801561049f57600080fd5b506104a8610ef3565b6040516104b59190612e64565b60405180910390f35b3480156104ca57600080fd5b506104d3610f1d565b6040516104e09190612ee6565b60405180910390f35b3480156104f557600080fd5b50610510600480360381019061050b9190612958565b610faf565b005b34801561051e57600080fd5b50610539600480360381019061053491906128dd565b610fc5565b005b34801561054757600080fd5b50610550611027565b60405161055d91906131e8565b60405180910390f35b34801561057257600080fd5b5061058d60048036038101906105889190612a22565b61102d565b60405161059a9190612ee6565b60405180910390f35b3480156105af57600080fd5b506105ca60048036038101906105c59190612852565b6110d4565b6040516105d79190612ecb565b60405180910390f35b3480156105ec57600080fd5b5061060760048036038101906106029190612829565b611168565b005b600061061482611276565b9050919050565b60606000805461062a9061340d565b80601f01602080910402602001604051908101604052809291908181526020018280546106569061340d565b80156106a35780601f10610678576101008083540402835291602001916106a3565b820191906000526020600020905b81548152906001019060200180831161068657829003601f168201915b5050505050905090565b60006106b8826112f0565b6106f7576040517f08c379a00000000000000000000000000000000000000000000000000000000081526004016106ee90613108565b60405180910390fd5b6004600083815260200190815260200160002060009054906101000a900473ffffffffffffffffffffffffffffffffffffffff169050919050565b600061073d82610c7b565b90508073ffffffffffffffffffffffffffffffffffffffff168373ffffffffffffffffffffffffffffffffffffffff1614156107ae576040517f08c379a00000000000000000000000000000000000000000000000000000000081526004016107a590613168565b60405180910390fd5b8073ffffffffffffffffffffffffffffffffffffffff166107cd61135c565b73ffffffffffffffffffffffffffffffffffffffff1614806107fc57506107fb816107f661135c565b6110d4565b5b61083b576040517f08c379a000000000000000000000000000000000000000000000000000000000815260040161083290613068565b60405180910390fd5b6108458383611364565b505050565b6000600880549050905090565b61086861086261135c565b8261141d565b6108a7576040517f08c379a000000000000000000000000000000000000000000000000000000000815260040161089e90613188565b60405180910390fd5b6108b28383836114fb565b505050565b60006108c283610d2d565b8210610903576040517f08c379a00000000000000000000000000000000000000000000000000000000081526004016108fa90612f48565b60405180910390fd5b600660008473ffffffffffffffffffffffffffffffffffffffff1673ffffffffffffffffffffffffffffffffffffffff168152602001908152602001600020600083815260200190815260200160002054905092915050565b600d5481565b61096a61135c565b73ffffffffffffffffffffffffffffffffffffffff16610988610ef3565b73ffffffffffffffffffffffffffffffffffffffff16146109de576040517f08c379a00000000000000000000000000000000000000000000000000000000081526004016109d590613128565b60405180910390fd5b60004711610a21576040517f08c379a0000000000000000000000000000000000000000000000000000000008152600401610a1890612f08565b60405180910390fd5b610a29610ef3565b73ffffffffffffffffffffffffffffffffffffffff166108fc479081150290604051600060405180830381858888f19350505050158015610a6e573d6000803e3d6000fd5b50565b610a7961135c565b73ffffffffffffffffffffffffffffffffffffffff16610a97610ef3565b73ffffffffffffffffffffffffffffffffffffffff1614610aed576040517f08c379a0000000000000000000000000000000000000000000000000000000008152600401610ae490613128565b60405180910390fd5b610af5611762565b565b600d54610b0261084a565b10610b42576040517f08c379a0000000000000000000000000000000000000000000000000000000008152600401610b39906130e8565b60405180910390fd5b600c54341015610b87576040517f08c379a0000000000000000000000000000000000000000000000000000000008152600401610b7e906131a8565b60405180910390fd5b6000610b93600b611804565b9050610b9f600b611260565b610ba98282611812565b5050565b610bc883838360405180602001604052806000815250610fc5565b505050565b6000610bd761084a565b8210610c18576040517f08c379a0000000000000000000000000000000000000000000000000000000008152600401610c0f906131c8565b60405180910390fd5b60088281548110610c52577f4e487b7100000000000000000000000000000000000000000000000000000000600052603260045260246000fd5b90600052602060002001549050919050565b6000600a60009054906101000a900460ff16905090565b6000806002600084815260200190815260200160002060009054906101000a900473ffffffffffffffffffffffffffffffffffffffff169050600073ffffffffffffffffffffffffffffffffffffffff168173ffffffffffffffffffffffffffffffffffffffff161415610d24576040517f08c379a0000000000000000000000000000000000000000000000000000000008152600401610d1b906130a8565b60405180910390fd5b80915050919050565b60008073ffffffffffffffffffffffffffffffffffffffff168273ffffffffffffffffffffffffffffffffffffffff161415610d9e576040517f08c379a0000000000000000000000000000000000000000000000000000000008152600401610d9590613088565b60405180910390fd5b600360008373ffffffffffffffffffffffffffffffffffffffff1673ffffffffffffffffffffffffffffffffffffffff168152602001908152602001600020549050919050565b610ded61135c565b73ffffffffffffffffffffffffffffffffffffffff16610e0b610ef3565b73ffffffffffffffffffffffffffffffffffffffff1614610e61576040517f08c379a0000000000000000000000000000000000000000000000000000000008152600401610e5890613128565b60405180910390fd5b610e6b6000611830565b565b610e7561135c565b73ffffffffffffffffffffffffffffffffffffffff16610e93610ef3565b73ffffffffffffffffffffffffffffffffffffffff1614610ee9576040517f08c379a0000000000000000000000000000000000000000000000000000000008152600401610ee090613128565b60405180910390fd5b610ef16118f6565b565b6000600a60019054906101000a900473ffffffffffffffffffffffffffffffffffffffff16905090565b606060018054610f2c9061340d565b80601f0160208091040260200160405190810160405280929190818152602001828054610f589061340d565b8015610fa55780601f10610f7a57610100808354040283529160200191610fa5565b820191906000526020600020905b815481529060010190602001808311610f8857829003601f168201915b5050505050905090565b610fc1610fba61135c565b8383611999565b5050565b610fd6610fd061135c565b8361141d565b611015576040517f08c379a000000000000000000000000000000000000000000000000000000000815260040161100c90613188565b60405180910390fd5b61102184848484611b06565b50505050565b600c5481565b6060611038826112f0565b611077576040517f08c379a000000000000000000000000000000000000000000000000000000000815260040161106e90613148565b60405180910390fd5b6000611081611b62565b905060008151116110a157604051806020016040528060008152506110cc565b806110ab84611b82565b6040516020016110bc929190612e40565b6040516020818303038152906040525b915050919050565b6000600560008473ffffffffffffffffffffffffffffffffffffffff1673ffffffffffffffffffffffffffffffffffffffff16815260200190815260200160002060008373ffffffffffffffffffffffffffffffffffffffff1673ffffffffffffffffffffffffffffffffffffffff16815260200190815260200160002060009054906101000a900460ff16905092915050565b61117061135c565b73ffffffffffffffffffffffffffffffffffffffff1661118e610ef3565b73ffffffffffffffffffffffffffffffffffffffff16146111e4576040517f08c379a00000000000000000000000000000000000000000000000000000000081526004016111db90613128565b60405180910390fd5b600073ffffffffffffffffffffffffffffffffffffffff168173ffffffffffffffffffffffffffffffffffffffff161415611254576040517f08c379a000000000000000000000000000000000000000000000000000000000815260040161124b90612f88565b60405180910390fd5b61125d81611830565b50565b6001816000016000828254019250508190555050565b60007f780e9d63000000000000000000000000000000000000000000000000000000007bffffffffffffffffffffffffffffffffffffffffffffffffffffffff1916827bffffffffffffffffffffffffffffffffffffffffffffffffffffffff191614806112e957506112e882611d2f565b5b9050919050565b60008073ffffffffffffffffffffffffffffffffffffffff166002600084815260200190815260200160002060009054906101000a900473ffffffffffffffffffffffffffffffffffffffff1673ffffffffffffffffffffffffffffffffffffffff1614159050919050565b600033905090565b816004600083815260200190815260200160002060006101000a81548173ffffffffffffffffffffffffffffffffffffffff021916908373ffffffffffffffffffffffffffffffffffffffff160217905550808273ffffffffffffffffffffffffffffffffffffffff166113d783610c7b565b73ffffffffffffffffffffffffffffffffffffffff167f8c5be1e5ebec7d5bd14f71427d1e84f3dd0314c0f7b2291e5b200ac8c7c3b92560405160405180910390a45050565b6000611428826112f0565b611467576040517f08c379a000000000000000000000000000000000000000000000000000000000815260040161145e90613028565b60405180910390fd5b600061147283610c7b565b90508073ffffffffffffffffffffffffffffffffffffffff168473ffffffffffffffffffffffffffffffffffffffff1614806114b457506114b381856110d4565b5b806114f257508373ffffffffffffffffffffffffffffffffffffffff166114da846106ad565b73ffffffffffffffffffffffffffffffffffffffff16145b91505092915050565b8273ffffffffffffffffffffffffffffffffffffffff1661151b82610c7b565b73ffffffffffffffffffffffffffffffffffffffff1614611571576040517f08c379a000000000000000000000000000000000000000000000000000000000815260040161156890612fa8565b60405180910390fd5b600073ffffffffffffffffffffffffffffffffffffffff168273ffffffffffffffffffffffffffffffffffffffff1614156115e1576040517f08c379a00000000000000000000000000000000000000000000000000000000081526004016115d890612fe8565b60405180910390fd5b6115ec838383611e11565b6115f7600082611364565b6001600360008573ffffffffffffffffffffffffffffffffffffffff1673ffffffffffffffffffffffffffffffffffffffff16815260200190815260200160002060008282546116479190613323565b925050819055506001600360008473ffffffffffffffffffffffffffffffffffffffff1673ffffffffffffffffffffffffffffffffffffffff168152602001908152602001600020600082825461169e919061329c565b92505081905550816002600083815260200190815260200160002060006101000a81548173ffffffffffffffffffffffffffffffffffffffff021916908373ffffffffffffffffffffffffffffffffffffffff160217905550808273ffffffffffffffffffffffffffffffffffffffff168473ffffffffffffffffffffffffffffffffffffffff167fddf252ad1be2c89b69c2b068fc378daa952ba7f163c4a11628f55a4df523b3ef60405160405180910390a461175d838383611e69565b505050565b61176a610c64565b6117a9576040517f08c379a00000000000000000000000000000000000000000000000000000000081526004016117a090612f28565b60405180910390fd5b6000600a60006101000a81548160ff0219169083151502179055507f5db9ee0a495bf2e6ff9c91a7834c1ba4fdd244a5e8aa4e537bd38aeae4b073aa6117ed61135c565b6040516117fa9190612e64565b60405180910390a1565b600081600001549050919050565b61182c828260405180602001604052806000815250611e6e565b5050565b6000600a60019054906101000a900473ffffffffffffffffffffffffffffffffffffffff16905081600a60016101000a81548173ffffffffffffffffffffffffffffffffffffffff021916908373ffffffffffffffffffffffffffffffffffffffff1602179055508173ffffffffffffffffffffffffffffffffffffffff168173ffffffffffffffffffffffffffffffffffffffff167f8be0079c531659141344cd1fd0a4f28419497f9722a3daafe3b4186f6b6457e060405160405180910390a35050565b6118fe610c64565b1561193e576040517f08c379a000000000000000000000000000000000000000000000000000000000815260040161193590613048565b60405180910390fd5b6001600a60006101000a81548160ff0219169083151502179055507f62e78cea01bee320cd4e420270b5ea74000d11b0c9f74754ebdbfc544b05a25861198261135c565b60405161198f9190612e64565b60405180910390a1565b8173ffffffffffffffffffffffffffffffffffffffff168373ffffffffffffffffffffffffffffffffffffffff161415611a08576040517f08c379a00000000000000000000000000000000000000000000000000000000081526004016119ff90613008565b60405180910390fd5b80600560008573ffffffffffffffffffffffffffffffffffffffff1673ffffffffffffffffffffffffffffffffffffffff16815260200190815260200160002060008473ffffffffffffffffffffffffffffffffffffffff1673ffffffffffffffffffffffffffffffffffffffff16815260200190815260200160002060006101000a81548160ff0219169083151502179055508173ffffffffffffffffffffffffffffffffffffffff168373ffffffffffffffffffffffffffffffffffffffff167f17307eab39ab6107e8899845ad3d59bd9653f200f220920489ca2b5937696c3183604051611af99190612ecb565b60405180910390a3505050565b611b118484846114fb565b611b1d84848484611ec9565b611b5c576040517f08c379a0000000000000000000000000000000000000000000000000000000008152600401611b5390612f68565b60405180910390fd5b50505050565b6060604051806060016040528060368152602001613bd760369139905090565b60606000821415611bca576040518060400160405280600181526020017f30000000000000000000000000000000000000000000000000000000000000008152509050611d2a565b600082905060005b60008214611bfc578080611be590613470565b915050600a82611bf591906132f2565b9150611bd2565b60008167ffffffffffffffff811115611c3e577f4e487b7100000000000000000000000000000000000000000000000000000000600052604160045260246000fd5b6040519080825280601f01601f191660200182016040528015611c705781602001600182028036833780820191505090505b5090505b60008514611d2357600182611c899190613323565b9150600a85611c9891906134b9565b6030611ca4919061329c565b60f81b818381518110611ce0577f4e487b7100000000000000000000000000000000000000000000000000000000600052603260045260246000fd5b60200101907effffffffffffffffffffffffffffffffffffffffffffffffffffffffffffff1916908160001a905350600a85611d1c91906132f2565b9450611c74565b8093505050505b919050565b60007f80ac58cd000000000000000000000000000000000000000000000000000000007bffffffffffffffffffffffffffffffffffffffffffffffffffffffff1916827bffffffffffffffffffffffffffffffffffffffffffffffffffffffff19161480611dfa57507f5b5e139f000000000000000000000000000000000000000000000000000000007bffffffffffffffffffffffffffffffffffffffffffffffffffffffff1916827bffffffffffffffffffffffffffffffffffffffffffffffffffffffff1916145b80611e0a5750611e0982612060565b5b9050919050565b611e19610c64565b15611e59576040517f08c379a0000000000000000000000000000000000000000000000000000000008152600401611e5090613048565b60405180910390fd5b611e648383836120ca565b505050565b505050565b611e7883836121de565b611e856000848484611ec9565b611ec4576040517f08c379a0000000000000000000000000000000000000000000000000000000008152600401611ebb90612f68565b60405180910390fd5b505050565b6000611eea8473ffffffffffffffffffffffffffffffffffffffff166123b8565b15612053578373ffffffffffffffffffffffffffffffffffffffff1663150b7a02611f1361135c565b8786866040518563ffffffff1660e01b8152600401611f359493929190612e7f565b602060405180830381600087803b158015611f4f57600080fd5b505af1925050508015611f8057506040513d601f19601f82011682018060405250810190611f7d91906129f9565b60015b612003573d8060008114611fb0576040519150601f19603f3d011682016040523d82523d6000602084013e611fb5565b606091505b50600081511415611ffb576040517f08c379a0000000000000000000000000000000000000000000000000000000008152600401611ff290612f68565b60405180910390fd5b805181602001fd5b63150b7a0260e01b7bffffffffffffffffffffffffffffffffffffffffffffffffffffffff1916817bffffffffffffffffffffffffffffffffffffffffffffffffffffffff191614915050612058565b600190505b949350505050565b60007f01ffc9a7000000000000000000000000000000000000000000000000000000007bffffffffffffffffffffffffffffffffffffffffffffffffffffffff1916827bffffffffffffffffffffffffffffffffffffffffffffffffffffffff1916149050919050565b6120d58383836123db565b600073ffffffffffffffffffffffffffffffffffffffff168373ffffffffffffffffffffffffffffffffffffffff16141561211857612113816123e0565b612157565b8173ffffffffffffffffffffffffffffffffffffffff168373ffffffffffffffffffffffffffffffffffffffff1614612156576121558382612429565b5b5b600073ffffffffffffffffffffffffffffffffffffffff168273ffffffffffffffffffffffffffffffffffffffff16141561219a5761219581612596565b6121d9565b8273ffffffffffffffffffffffffffffffffffffffff168273ffffffffffffffffffffffffffffffffffffffff16146121d8576121d782826126d9565b5b5b505050565b600073ffffffffffffffffffffffffffffffffffffffff168273ffffffffffffffffffffffffffffffffffffffff16141561224e576040517f08c379a0000000000000000000000000000000000000000000000000000000008152600401612245906130c8565b60405180910390fd5b612257816112f0565b15612297576040517f08c379a000000000000000000000000000000000000000000000000000000000815260040161228e90612fc8565b60405180910390fd5b6122a360008383611e11565b6001600360008473ffffffffffffffffffffffffffffffffffffffff1673ffffffffffffffffffffffffffffffffffffffff16815260200190815260200160002060008282546122f3919061329c565b92505081905550816002600083815260200190815260200160002060006101000a81548173ffffffffffffffffffffffffffffffffffffffff021916908373ffffffffffffffffffffffffffffffffffffffff160217905550808273ffffffffffffffffffffffffffffffffffffffff16600073ffffffffffffffffffffffffffffffffffffffff167fddf252ad1be2c89b69c2b068fc378daa952ba7f163c4a11628f55a4df523b3ef60405160405180910390a46123b460008383611e69565b5050565b6000808273ffffffffffffffffffffffffffffffffffffffff163b119050919050565b505050565b6008805490506009600083815260200190815260200160002081905550600881908060018154018082558091505060019003906000526020600020016000909190919091505550565b6000600161243684610d2d565b6124409190613323565b9050600060076000848152602001908152602001600020549050818114612525576000600660008673ffffffffffffffffffffffffffffffffffffffff1673ffffffffffffffffffffffffffffffffffffffff168152602001908152602001600020600084815260200190815260200160002054905080600660008773ffffffffffffffffffffffffffffffffffffffff1673ffffffffffffffffffffffffffffffffffffffff168152602001908152602001600020600084815260200190815260200160002081905550816007600083815260200190815260200160002081905550505b6007600084815260200190815260200160002060009055600660008573ffffffffffffffffffffffffffffffffffffffff1673ffffffffffffffffffffffffffffffffffffffff16815260200190815260200160002060008381526020019081526020016000206000905550505050565b600060016008805490506125aa9190613323565b9050600060096000848152602001908152602001600020549050600060088381548110612600577f4e487b7100000000000000000000000000000000000000000000000000000000600052603260045260246000fd5b906000526020600020015490508060088381548110612648577f4e487b7100000000000000000000000000000000000000000000000000000000600052603260045260246000fd5b9060005260206000200181905550816009600083815260200190815260200160002081905550600960008581526020019081526020016000206000905560088054806126bd577f4e487b7100000000000000000000000000000000000000000000000000000000600052603160045260246000fd5b6001900381819060005260206000200160009055905550505050565b60006126e483610d2d565b905081600660008573ffffffffffffffffffffffffffffffffffffffff1673ffffffffffffffffffffffffffffffffffffffff168152602001908152602001600020600083815260200190815260200160002081905550806007600084815260200190815260200160002081905550505050565b600061276b61276684613228565b613203565b90508281526020810184848401111561278357600080fd5b61278e8482856133cb565b509392505050565b6000813590506127a581613b7a565b92915050565b6000813590506127ba81613b91565b92915050565b6000813590506127cf81613ba8565b92915050565b6000815190506127e481613ba8565b92915050565b600082601f8301126127fb57600080fd5b813561280b848260208601612758565b91505092915050565b60008135905061282381613bbf565b92915050565b60006020828403121561283b57600080fd5b600061284984828501612796565b91505092915050565b6000806040838503121561286557600080fd5b600061287385828601612796565b925050602061288485828601612796565b9150509250929050565b6000806000606084860312156128a357600080fd5b60006128b186828701612796565b93505060206128c286828701612796565b92505060406128d386828701612814565b9150509250925092565b600080600080608085870312156128f357600080fd5b600061290187828801612796565b945050602061291287828801612796565b935050604061292387828801612814565b925050606085013567ffffffffffffffff81111561294057600080fd5b61294c878288016127ea565b91505092959194509250565b6000806040838503121561296b57600080fd5b600061297985828601612796565b925050602061298a858286016127ab565b9150509250929050565b600080604083850312156129a757600080fd5b60006129b585828601612796565b92505060206129c685828601612814565b9150509250929050565b6000602082840312156129e257600080fd5b60006129f0848285016127c0565b91505092915050565b600060208284031215612a0b57600080fd5b6000612a19848285016127d5565b91505092915050565b600060208284031215612a3457600080fd5b6000612a4284828501612814565b91505092915050565b612a5481613357565b82525050565b612a6381613369565b82525050565b6000612a7482613259565b612a7e818561326f565b9350612a8e8185602086016133da565b612a97816135a6565b840191505092915050565b6000612aad82613264565b612ab78185613280565b9350612ac78185602086016133da565b612ad0816135a6565b840191505092915050565b6000612ae682613264565b612af08185613291565b9350612b008185602086016133da565b80840191505092915050565b6000612b19601083613280565b9150612b24826135b7565b602082019050919050565b6000612b3c601483613280565b9150612b47826135e0565b602082019050919050565b6000612b5f602b83613280565b9150612b6a82613609565b604082019050919050565b6000612b82603283613280565b9150612b8d82613658565b604082019050919050565b6000612ba5602683613280565b9150612bb0826136a7565b604082019050919050565b6000612bc8602583613280565b9150612bd3826136f6565b604082019050919050565b6000612beb601c83613280565b9150612bf682613745565b602082019050919050565b6000612c0e602483613280565b9150612c198261376e565b604082019050919050565b6000612c31601983613280565b9150612c3c826137bd565b602082019050919050565b6000612c54602c83613280565b9150612c5f826137e6565b604082019050919050565b6000612c77601083613280565b9150612c8282613835565b602082019050919050565b6000612c9a603883613280565b9150612ca58261385e565b604082019050919050565b6000612cbd602a83613280565b9150612cc8826138ad565b604082019050919050565b6000612ce0602983613280565b9150612ceb826138fc565b604082019050919050565b6000612d03602083613280565b9150612d0e8261394b565b602082019050919050565b6000612d26601a83613280565b9150612d3182613974565b602082019050919050565b6000612d49602c83613280565b9150612d548261399d565b604082019050919050565b6000612d6c602083613280565b9150612d77826139ec565b602082019050919050565b6000612d8f602f83613280565b9150612d9a82613a15565b604082019050919050565b6000612db2602183613280565b9150612dbd82613a64565b604082019050919050565b6000612dd5603183613280565b9150612de082613ab3565b604082019050919050565b6000612df8601683613280565b9150612e0382613b02565b602082019050919050565b6000612e1b602c83613280565b9150612e2682613b2b565b604082019050919050565b612e3a816133c1565b82525050565b6000612e4c8285612adb565b9150612e588284612adb565b91508190509392505050565b6000602082019050612e796000830184612a4b565b92915050565b6000608082019050612e946000830187612a4b565b612ea16020830186612a4b565b612eae6040830185612e31565b8181036060830152612ec08184612a69565b905095945050505050565b6000602082019050612ee06000830184612a5a565b92915050565b60006020820190508181036000830152612f008184612aa2565b905092915050565b60006020820190508181036000830152612f2181612b0c565b9050919050565b60006020820190508181036000830152612f4181612b2f565b9050919050565b60006020820190508181036000830152612f6181612b52565b9050919050565b60006020820190508181036000830152612f8181612b75565b9050919050565b60006020820190508181036000830152612fa181612b98565b9050919050565b60006020820190508181036000830152612fc181612bbb565b9050919050565b60006020820190508181036000830152612fe181612bde565b9050919050565b6000602082019050818103600083015261300181612c01565b9050919050565b6000602082019050818103600083015261302181612c24565b9050919050565b6000602082019050818103600083015261304181612c47565b9050919050565b6000602082019050818103600083015261306181612c6a565b9050919050565b6000602082019050818103600083015261308181612c8d565b9050919050565b600060208201905081810360008301526130a181612cb0565b9050919050565b600060208201905081810360008301526130c181612cd3565b9050919050565b600060208201905081810360008301526130e181612cf6565b9050919050565b6000602082019050818103600083015261310181612d19565b9050919050565b6000602082019050818103600083015261312181612d3c565b9050919050565b6000602082019050818103600083015261314181612d5f565b9050919050565b6000602082019050818103600083015261316181612d82565b9050919050565b6000602082019050818103600083015261318181612da5565b9050919050565b600060208201905081810360008301526131a181612dc8565b9050919050565b600060208201905081810360008301526131c181612deb565b9050919050565b600060208201905081810360008301526131e181612e0e565b9050919050565b60006020820190506131fd6000830184612e31565b92915050565b600061320d61321e565b9050613219828261343f565b919050565b6000604051905090565b600067ffffffffffffffff82111561324357613242613577565b5b61324c826135a6565b9050602081019050919050565b600081519050919050565b600081519050919050565b600082825260208201905092915050565b600082825260208201905092915050565b600081905092915050565b60006132a7826133c1565b91506132b2836133c1565b9250827fffffffffffffffffffffffffffffffffffffffffffffffffffffffffffffffff038211156132e7576132e66134ea565b5b828201905092915050565b60006132fd826133c1565b9150613308836133c1565b92508261331857613317613519565b5b828204905092915050565b600061332e826133c1565b9150613339836133c1565b92508282101561334c5761334b6134ea565b5b828203905092915050565b6000613362826133a1565b9050919050565b60008115159050919050565b60007fffffffff0000000000000000000000000000000000000000000000000000000082169050919050565b600073ffffffffffffffffffffffffffffffffffffffff82169050919050565b6000819050919050565b82818337600083830152505050565b60005b838110156133f85780820151818401526020810190506133dd565b83811115613407576000848401525b50505050565b6000600282049050600182168061342557607f821691505b6020821081141561343957613438613548565b5b50919050565b613448826135a6565b810181811067ffffffffffffffff8211171561346757613466613577565b5b80604052505050565b600061347b826133c1565b91507fffffffffffffffffffffffffffffffffffffffffffffffffffffffffffffffff8214156134ae576134ad6134ea565b5b600182019050919050565b60006134c4826133c1565b91506134cf836133c1565b9250826134df576134de613519565b5b828206905092915050565b7f4e487b7100000000000000000000000000000000000000000000000000000000600052601160045260246000fd5b7f4e487b7100000000000000000000000000000000000000000000000000000000600052601260045260246000fd5b7f4e487b7100000000000000000000000000000000000000000000000000000000600052602260045260246000fd5b7f4e487b7100000000000000000000000000000000000000000000000000000000600052604160045260246000fd5b6000601f19601f8301169050919050565b7f42616c616e6365206973207a65726f2e00000000000000000000000000000000600082015250565b7f5061757361626c653a206e6f7420706175736564000000000000000000000000600082015250565b7f455243373231456e756d657261626c653a206f776e657220696e646578206f7560008201527f74206f6620626f756e6473000000000000000000000000000000000000000000602082015250565b7f4552433732313a207472616e7366657220746f206e6f6e20455243373231526560008201527f63656976657220696d706c656d656e7465720000000000000000000000000000602082015250565b7f4f776e61626c653a206e6577206f776e657220697320746865207a65726f206160008201527f6464726573730000000000000000000000000000000000000000000000000000602082015250565b7f4552433732313a207472616e736665722066726f6d20696e636f72726563742060008201527f6f776e6572000000000000000000000000000000000000000000000000000000602082015250565b7f4552433732313a20746f6b656e20616c7265616479206d696e74656400000000600082015250565b7f4552433732313a207472616e7366657220746f20746865207a65726f2061646460008201527f7265737300000000000000000000000000000000000000000000000000000000602082015250565b7f4552433732313a20617070726f766520746f2063616c6c657200000000000000600082015250565b7f4552433732313a206f70657261746f7220717565727920666f72206e6f6e657860008201527f697374656e7420746f6b656e0000000000000000000000000000000000000000602082015250565b7f5061757361626c653a2070617573656400000000000000000000000000000000600082015250565b7f4552433732313a20617070726f76652063616c6c6572206973206e6f74206f7760008201527f6e6572206e6f7220617070726f76656420666f7220616c6c0000000000000000602082015250565b7f4552433732313a2062616c616e636520717565727920666f7220746865207a6560008201527f726f206164647265737300000000000000000000000000000000000000000000602082015250565b7f4552433732313a206f776e657220717565727920666f72206e6f6e657869737460008201527f656e7420746f6b656e0000000000000000000000000000000000000000000000602082015250565b7f4552433732313a206d696e7420746f20746865207a65726f2061646472657373600082015250565b7f43616e2774206d696e7420616e796d6f726520746f6b656e732e000000000000600082015250565b7f4552433732313a20617070726f76656420717565727920666f72206e6f6e657860008201527f697374656e7420746f6b656e0000000000000000000000000000000000000000602082015250565b7f4f776e61626c653a2063616c6c6572206973206e6f7420746865206f776e6572600082015250565b7f4552433732314d657461646174613a2055524920717565727920666f72206e6f60008201527f6e6578697374656e7420746f6b656e0000000000000000000000000000000000602082015250565b7f4552433732313a20617070726f76616c20746f2063757272656e74206f776e6560008201527f7200000000000000000000000000000000000000000000000000000000000000602082015250565b7f4552433732313a207472616e736665722063616c6c6572206973206e6f74206f60008201527f776e6572206e6f7220617070726f766564000000000000000000000000000000602082015250565b7f4e6f7420656e6f7567682065746865722073656e742e00000000000000000000600082015250565b7f455243373231456e756d657261626c653a20676c6f62616c20696e646578206f60008201527f7574206f6620626f756e64730000000000000000000000000000000000000000602082015250565b613b8381613357565b8114613b8e57600080fd5b50565b613b9a81613369565b8114613ba557600080fd5b50565b613bb181613375565b8114613bbc57600080fd5b50565b613bc8816133c1565b8114613bd357600080fd5b5056fe697066733a2f2f516d5742506f7068454377345178744e6b465a47587a65764756524b51354c5a58546e70795458546e71584652672fa26469706673582212209a98df9a24f6c43b58486eb09204077b9a90d63054a96c418b1c9bfbf080662a64736f6c63430008040033",
  "linkReferences": {},
  "deployedLinkReferences": {}
}