{
  "_format": "hh-sol-artifact-1",
  "contractName": "TheHMI",
  "sourceName": "contracts/TheHMI.sol",
  "abi": [
    {
      "inputs": [
        {
          "internalType": "string",
          "name": "_unrevealedURI",
          "type": "string"
        }
      ],
      "stateMutability": "nonpayable",
      "type": "constructor"
    },
    {
      "anonymous": false,
      "inputs": [
        {
          "indexed": true,
          "internalType": "address",
          "name": "owner",
          "type": "address"
        },
        {
          "indexed": true,
          "internalType": "address",
          "name": "approved",
          "type": "address"
        },
        {
          "indexed": true,
          "internalType": "uint256",
          "name": "tokenId",
          "type": "uint256"
        }
      ],
      "name": "Approval",
      "type": "event"
    },
    {
      "anonymous": false,
      "inputs": [
        {
          "indexed": true,
          "internalType": "address",
          "name": "owner",
          "type": "address"
        },
        {
          "indexed": true,
          "internalType": "address",
          "name": "operator",
          "type": "address"
        },
        {
          "indexed": false,
          "internalType": "bool",
          "name": "approved",
          "type": "bool"
        }
      ],
      "name": "ApprovalForAll",
      "type": "event"
    },
    {
      "anonymous": false,
      "inputs": [
        {
          "indexed": true,
          "internalType": "address",
          "name": "previousOwner",
          "type": "address"
        },
        {
          "indexed": true,
          "internalType": "address",
          "name": "newOwner",
          "type": "address"
        }
      ],
      "name": "OwnershipTransferred",
      "type": "event"
    },
    {
      "anonymous": false,
      "inputs": [
        {
          "indexed": false,
          "internalType": "address",
          "name": "account",
          "type": "address"
        }
      ],
      "name": "Paused",
      "type": "event"
    },
    {
      "anonymous": false,
      "inputs": [
        {
          "indexed": true,
          "internalType": "address",
          "name": "from",
          "type": "address"
        },
        {
          "indexed": true,
          "internalType": "address",
          "name": "to",
          "type": "address"
        },
        {
          "indexed": true,
          "internalType": "uint256",
          "name": "tokenId",
          "type": "uint256"
        }
      ],
      "name": "Transfer",
      "type": "event"
    },
    {
      "anonymous": false,
      "inputs": [
        {
          "indexed": false,
          "internalType": "address",
          "name": "account",
          "type": "address"
        }
      ],
      "name": "Unpaused",
      "type": "event"
    },
    {
      "inputs": [],
      "name": "_paused",
      "outputs": [
        {
          "internalType": "bool",
          "name": "",
          "type": "bool"
        }
      ],
      "stateMutability": "view",
      "type": "function"
    },
    {
      "inputs": [],
      "name": "addressCount",
      "outputs": [
        {
          "internalType": "uint256",
          "name": "",
          "type": "uint256"
        }
      ],
      "stateMutability": "view",
      "type": "function"
    },
    {
      "inputs": [
        {
          "internalType": "address[]",
          "name": "wAddresses",
          "type": "address[]"
        }
      ],
      "name": "airdropNfts",
      "outputs": [],
      "stateMutability": "nonpayable",
      "type": "function"
    },
    {
      "inputs": [],
      "name": "amountMinted",
      "outputs": [
        {
          "internalType": "uint256",
          "name": "",
          "type": "uint256"
        }
      ],
      "stateMutability": "view",
      "type": "function"
    },
    {
      "inputs": [
        {
          "internalType": "address",
          "name": "to",
          "type": "address"
        },
        {
          "internalType": "uint256",
          "name": "tokenId",
          "type": "uint256"
        }
      ],
      "name": "approve",
      "outputs": [],
      "stateMutability": "nonpayable",
      "type": "function"
    },
    {
      "inputs": [
        {
          "internalType": "address",
          "name": "owner",
          "type": "address"
        }
      ],
      "name": "balanceOf",
      "outputs": [
        {
          "internalType": "uint256",
          "name": "",
          "type": "uint256"
        }
      ],
      "stateMutability": "view",
      "type": "function"
    },
    {
      "inputs": [
        {
          "internalType": "uint256",
          "name": "tokenId",
          "type": "uint256"
        }
      ],
      "name": "getApproved",
      "outputs": [
        {
          "internalType": "address",
          "name": "",
          "type": "address"
        }
      ],
      "stateMutability": "view",
      "type": "function"
    },
    {
      "inputs": [
        {
          "internalType": "address",
          "name": "owner",
          "type": "address"
        },
        {
          "internalType": "address",
          "name": "operator",
          "type": "address"
        }
      ],
      "name": "isApprovedForAll",
      "outputs": [
        {
          "internalType": "bool",
          "name": "",
          "type": "bool"
        }
      ],
      "stateMutability": "view",
      "type": "function"
    },
    {
      "inputs": [],
      "name": "maxMintAmount",
      "outputs": [
        {
          "internalType": "uint256",
          "name": "",
          "type": "uint256"
        }
      ],
      "stateMutability": "view",
      "type": "function"
    },
    {
      "inputs": [],
      "name": "maxSupply",
      "outputs": [
        {
          "internalType": "uint256",
          "name": "",
          "type": "uint256"
        }
      ],
      "stateMutability": "view",
      "type": "function"
    },
    {
      "inputs": [],
      "name": "mintPrice",
      "outputs": [
        {
          "internalType": "uint256",
          "name": "",
          "type": "uint256"
        }
      ],
      "stateMutability": "view",
      "type": "function"
    },
    {
      "inputs": [],
      "name": "name",
      "outputs": [
        {
          "internalType": "string",
          "name": "",
          "type": "string"
        }
      ],
      "stateMutability": "view",
      "type": "function"
    },
    {
      "inputs": [],
      "name": "notRevealedURI",
      "outputs": [
        {
          "internalType": "string",
          "name": "",
          "type": "string"
        }
      ],
      "stateMutability": "view",
      "type": "function"
    },
    {
      "inputs": [],
      "name": "owner",
      "outputs": [
        {
          "internalType": "address",
          "name": "",
          "type": "address"
        }
      ],
      "stateMutability": "view",
      "type": "function"
    },
    {
      "inputs": [
        {
          "internalType": "uint256",
          "name": "tokenId",
          "type": "uint256"
        }
      ],
      "name": "ownerOf",
      "outputs": [
        {
          "internalType": "address",
          "name": "",
          "type": "address"
        }
      ],
      "stateMutability": "view",
      "type": "function"
    },
    {
      "inputs": [],
      "name": "pause",
      "outputs": [],
      "stateMutability": "nonpayable",
      "type": "function"
    },
    {
      "inputs": [],
      "name": "paused",
      "outputs": [
        {
          "internalType": "bool",
          "name": "",
          "type": "bool"
        }
      ],
      "stateMutability": "view",
      "type": "function"
    },
    {
      "inputs": [],
      "name": "renounceOwnership",
      "outputs": [],
      "stateMutability": "nonpayable",
      "type": "function"
    },
    {
      "inputs": [],
      "name": "revealed",
      "outputs": [
        {
          "internalType": "bool",
          "name": "",
          "type": "bool"
        }
      ],
      "stateMutability": "view",
      "type": "function"
    },
    {
      "inputs": [
        {
          "internalType": "uint256",
          "name": "_mintAmount",
          "type": "uint256"
        }
      ],
      "name": "safeMint",
      "outputs": [],
      "stateMutability": "payable",
      "type": "function"
    },
    {
      "inputs": [
        {
          "internalType": "address",
          "name": "from",
          "type": "address"
        },
        {
          "internalType": "address",
          "name": "to",
          "type": "address"
        },
        {
          "internalType": "uint256",
          "name": "tokenId",
          "type": "uint256"
        }
      ],
      "name": "safeTransferFrom",
      "outputs": [],
      "stateMutability": "nonpayable",
      "type": "function"
    },
    {
      "inputs": [
        {
          "internalType": "address",
          "name": "from",
          "type": "address"
        },
        {
          "internalType": "address",
          "name": "to",
          "type": "address"
        },
        {
          "internalType": "uint256",
          "name": "tokenId",
          "type": "uint256"
        },
        {
          "internalType": "bytes",
          "name": "data",
          "type": "bytes"
        }
      ],
      "name": "safeTransferFrom",
      "outputs": [],
      "stateMutability": "nonpayable",
      "type": "function"
    },
    {
      "inputs": [
        {
          "internalType": "address",
          "name": "operator",
          "type": "address"
        },
        {
          "internalType": "bool",
          "name": "approved",
          "type": "bool"
        }
      ],
      "name": "setApprovalForAll",
      "outputs": [],
      "stateMutability": "nonpayable",
      "type": "function"
    },
    {
      "inputs": [
        {
          "internalType": "string",
          "name": "_notRevealedURI",
          "type": "string"
        }
      ],
      "name": "setNotRevealedURI",
      "outputs": [],
      "stateMutability": "nonpayable",
      "type": "function"
    },
    {
      "inputs": [
        {
          "internalType": "address",
          "name": "_address",
          "type": "address"
        },
        {
          "internalType": "uint256",
          "name": "_mintAmount",
          "type": "uint256"
        }
      ],
      "name": "setWhitelist",
      "outputs": [],
      "stateMutability": "nonpayable",
      "type": "function"
    },
    {
      "inputs": [
        {
          "internalType": "bool",
          "name": "_whitelistEnabled",
          "type": "bool"
        }
      ],
      "name": "setWhitelistEnabled",
      "outputs": [],
      "stateMutability": "nonpayable",
      "type": "function"
    },
    {
      "inputs": [
        {
          "internalType": "bytes4",
          "name": "interfaceId",
          "type": "bytes4"
        }
      ],
      "name": "supportsInterface",
      "outputs": [
        {
          "internalType": "bool",
          "name": "",
          "type": "bool"
        }
      ],
      "stateMutability": "view",
      "type": "function"
    },
    {
      "inputs": [],
      "name": "symbol",
      "outputs": [
        {
          "internalType": "string",
          "name": "",
          "type": "string"
        }
      ],
      "stateMutability": "view",
      "type": "function"
    },
    {
      "inputs": [
        {
          "internalType": "uint256",
          "name": "tokenId",
          "type": "uint256"
        }
      ],
      "name": "tokenURI",
      "outputs": [
        {
          "internalType": "string",
          "name": "",
          "type": "string"
        }
      ],
      "stateMutability": "view",
      "type": "function"
    },
    {
      "inputs": [],
      "name": "totalSupply",
      "outputs": [
        {
          "internalType": "uint256",
          "name": "",
          "type": "uint256"
        }
      ],
      "stateMutability": "view",
      "type": "function"
    },
    {
      "inputs": [
        {
          "internalType": "address",
          "name": "from",
          "type": "address"
        },
        {
          "internalType": "address",
          "name": "to",
          "type": "address"
        },
        {
          "internalType": "uint256",
          "name": "tokenId",
          "type": "uint256"
        }
      ],
      "name": "transferFrom",
      "outputs": [],
      "stateMutability": "nonpayable",
      "type": "function"
    },
    {
      "inputs": [
        {
          "internalType": "address",
          "name": "newOwner",
          "type": "address"
        }
      ],
      "name": "transferOwnership",
      "outputs": [],
      "stateMutability": "nonpayable",
      "type": "function"
    },
    {
      "inputs": [],
      "name": "unpause",
      "outputs": [],
      "stateMutability": "nonpayable",
      "type": "function"
    },
    {
      "inputs": [
        {
          "internalType": "address",
          "name": "",
          "type": "address"
        }
      ],
      "name": "whitelistClaimed",
      "outputs": [
        {
          "internalType": "uint256",
          "name": "",
          "type": "uint256"
        }
      ],
      "stateMutability": "view",
      "type": "function"
    },
    {
      "inputs": [],
      "name": "whitelistEnabled",
      "outputs": [
        {
          "internalType": "bool",
          "name": "",
          "type": "bool"
        }
      ],
      "stateMutability": "view",
      "type": "function"
    },
    {
      "inputs": [],
      "name": "whitelistLimit",
      "outputs": [
        {
          "internalType": "uint256",
          "name": "",
          "type": "uint256"
        }
      ],
      "stateMutability": "view",
      "type": "function"
    },
    {
      "inputs": [],
      "name": "whitelistMintAmount",
      "outputs": [
        {
          "internalType": "uint256",
          "name": "",
          "type": "uint256"
        }
      ],
      "stateMutability": "view",
      "type": "function"
    },
    {
      "inputs": [],
      "name": "whitelistPrice",
      "outputs": [
        {
          "internalType": "uint256",
          "name": "",
          "type": "uint256"
        }
      ],
      "stateMutability": "view",
      "type": "function"
    },
    {
      "inputs": [],
      "name": "withdraw",
      "outputs": [],
      "stateMutability": "nonpayable",
      "type": "function"
    }
  ],
  "bytecode": "0x608060405260646009556005600a556714d1120d7b160000600b55670de0b6b3a7640000600d556002600e556003600f556000601060006101000a81548160ff0219169083151502179055506000601060016101000a81548160ff0219169083151502179055503480156200007357600080fd5b5060405162004a8e38038062004a8e8339818101604052810190620000999190620005a7565b6040518060400160405280600681526020017f546865484d4900000000000000000000000000000000000000000000000000008152506040518060400160405280600281526020017f544800000000000000000000000000000000000000000000000000000000000081525081600090805190602001906200011d92919062000485565b5080600190805190602001906200013692919062000485565b5050506001600660006101000a81548160ff0219169083151502179055506200017462000168620001ee60201b60201c565b620001f660201b60201c565b620001bf6040518060400160405280601b81526020017f436f6e747261637420686173206265656e206465706c6f796564210000000000815250620002bc60201b6200193e1760201c565b620001d0816200035f60201b60201c565b620001e760076200038b60201b620019d71760201c565b506200084f565b600033905090565b6000600660019054906101000a900473ffffffffffffffffffffffffffffffffffffffff16905081600660016101000a81548173ffffffffffffffffffffffffffffffffffffffff021916908373ffffffffffffffffffffffffffffffffffffffff1602179055508173ffffffffffffffffffffffffffffffffffffffff168173ffffffffffffffffffffffffffffffffffffffff167f8be0079c531659141344cd1fd0a4f28419497f9722a3daafe3b4186f6b6457e060405160405180910390a35050565b6200035c81604051602401620002d3919062000654565b6040516020818303038152906040527f41304fac000000000000000000000000000000000000000000000000000000007bffffffffffffffffffffffffffffffffffffffffffffffffffffffff19166020820180517bffffffffffffffffffffffffffffffffffffffffffffffffffffffff8381831617835250505050620003a160201b60201c565b50565b6200036f620003ca60201b60201c565b80600890805190602001906200038792919062000485565b5050565b6001816000016000828254019250508190555050565b60008151905060006a636f6e736f6c652e6c6f679050602083016000808483855afa5050505050565b620003da620001ee60201b60201c565b73ffffffffffffffffffffffffffffffffffffffff16620004006200045b60201b60201c565b73ffffffffffffffffffffffffffffffffffffffff161462000459576040517f08c379a0000000000000000000000000000000000000000000000000000000008152600401620004509062000678565b60405180910390fd5b565b6000600660019054906101000a900473ffffffffffffffffffffffffffffffffffffffff16905090565b82805462000493906200074b565b90600052602060002090601f016020900481019282620004b7576000855562000503565b82601f10620004d257805160ff191683800117855562000503565b8280016001018555821562000503579182015b8281111562000502578251825591602001919060010190620004e5565b5b50905062000512919062000516565b5090565b5b808211156200053157600081600090555060010162000517565b5090565b60006200054c6200054684620006c3565b6200069a565b9050828152602081018484840111156200056557600080fd5b6200057284828562000715565b509392505050565b600082601f8301126200058c57600080fd5b81516200059e84826020860162000535565b91505092915050565b600060208284031215620005ba57600080fd5b600082015167ffffffffffffffff811115620005d557600080fd5b620005e3848285016200057a565b91505092915050565b6000620005f982620006f9565b62000605818562000704565b93506200061781856020860162000715565b620006228162000815565b840191505092915050565b60006200063c60208362000704565b9150620006498262000826565b602082019050919050565b60006020820190508181036000830152620006708184620005ec565b905092915050565b6000602082019050818103600083015262000693816200062d565b9050919050565b6000620006a6620006b9565b9050620006b4828262000781565b919050565b6000604051905090565b600067ffffffffffffffff821115620006e157620006e0620007e6565b5b620006ec8262000815565b9050602081019050919050565b600081519050919050565b600082825260208201905092915050565b60005b838110156200073557808201518184015260208101905062000718565b8381111562000745576000848401525b50505050565b600060028204905060018216806200076457607f821691505b602082108114156200077b576200077a620007b7565b5b50919050565b6200078c8262000815565b810181811067ffffffffffffffff82111715620007ae57620007ad620007e6565b5b80604052505050565b7f4e487b7100000000000000000000000000000000000000000000000000000000600052602260045260246000fd5b7f4e487b7100000000000000000000000000000000000000000000000000000000600052604160045260246000fd5b6000601f19601f8301169050919050565b7f4f776e61626c653a2063616c6c6572206973206e6f7420746865206f776e6572600082015250565b61422f806200085f6000396000f3fe6080604052600436106102305760003560e01c80636817c76c1161012e578063b88d4fde116100ab578063e985e9c51161006f578063e985e9c5146107ea578063f2c4ce1e14610827578063f2fde38b14610850578063f356749d14610879578063fc1a1c36146108a257610230565b8063b88d4fde146106f1578063c87b56dd1461071a578063cfb89aba14610757578063d5abeb0114610782578063db4bec44146107ad57610230565b80638456cb59116100f25780638456cb59146106305780638da5cb5b1461064757806395d89b41146106725780639d80c8181461069d578063a22cb465146106c857610230565b80636817c76c1461055b57806370a0823114610586578063715018a6146105c357806372250380146105da5780637af284d51461060557610230565b806323b872dd116101bc57806342842e0e1161018057806342842e0e14610474578063518302271461049d57806351fb012d146104c85780635c975abb146104f35780636352211e1461051e57610230565b806323b872dd146103d6578063302150e5146103ff57806331c864e81461042a5780633ccfd60b146104465780633f4ba83a1461045d57610230565b8063095ea7b311610203578063095ea7b3146103035780631302d03a1461032c57806316c61ccc1461035557806318160ddd14610380578063239c70ae146103ab57610230565b806301ffc9a714610235578063052d9e7e1461027257806306fdde031461029b578063081812fc146102c6575b600080fd5b34801561024157600080fd5b5061025c60048036038101906102579190612dad565b6108cd565b6040516102699190613352565b60405180910390f35b34801561027e57600080fd5b5061029960048036038101906102949190612d84565b6109af565b005b3480156102a757600080fd5b506102b06109d4565b6040516102bd919061336d565b60405180910390f35b3480156102d257600080fd5b506102ed60048036038101906102e89190612e40565b610a66565b6040516102fa91906132eb565b60405180910390f35b34801561030f57600080fd5b5061032a60048036038101906103259190612d03565b610aac565b005b34801561033857600080fd5b50610353600480360381019061034e9190612d03565b610bc4565b005b34801561036157600080fd5b5061036a610c2e565b6040516103779190613352565b60405180910390f35b34801561038c57600080fd5b50610395610c41565b6040516103a291906136cf565b60405180910390f35b3480156103b757600080fd5b506103c0610c4b565b6040516103cd91906136cf565b60405180910390f35b3480156103e257600080fd5b506103fd60048036038101906103f89190612bfd565b610c51565b005b34801561040b57600080fd5b50610414610cb1565b60405161042191906136cf565b60405180910390f35b610444600480360381019061043f9190612e40565b610cb7565b005b34801561045257600080fd5b5061045b611280565b005b34801561046957600080fd5b5061047261131b565b005b34801561048057600080fd5b5061049b60048036038101906104969190612bfd565b61132d565b005b3480156104a957600080fd5b506104b261134d565b6040516104bf9190613352565b60405180910390f35b3480156104d457600080fd5b506104dd611360565b6040516104ea9190613352565b60405180910390f35b3480156104ff57600080fd5b50610508611373565b6040516105159190613352565b60405180910390f35b34801561052a57600080fd5b5061054560048036038101906105409190612e40565b61138a565b60405161055291906132eb565b60405180910390f35b34801561056757600080fd5b5061057061143c565b60405161057d91906136cf565b60405180910390f35b34801561059257600080fd5b506105ad60048036038101906105a89190612b98565b611442565b6040516105ba91906136cf565b60405180910390f35b3480156105cf57600080fd5b506105d86114fa565b005b3480156105e657600080fd5b506105ef61150e565b6040516105fc919061336d565b60405180910390f35b34801561061157600080fd5b5061061a61159c565b60405161062791906136cf565b60405180910390f35b34801561063c57600080fd5b506106456115a2565b005b34801561065357600080fd5b5061065c6115b4565b60405161066991906132eb565b60405180910390f35b34801561067e57600080fd5b506106876115de565b604051610694919061336d565b60405180910390f35b3480156106a957600080fd5b506106b2611670565b6040516106bf91906136cf565b60405180910390f35b3480156106d457600080fd5b506106ef60048036038101906106ea9190612cc7565b611676565b005b3480156106fd57600080fd5b5061071860048036038101906107139190612c4c565b61168c565b005b34801561072657600080fd5b50610741600480360381019061073c9190612e40565b6116ee565b60405161074e919061336d565b60405180910390f35b34801561076357600080fd5b5061076c611756565b60405161077991906136cf565b60405180910390f35b34801561078e57600080fd5b5061079761175c565b6040516107a491906136cf565b60405180910390f35b3480156107b957600080fd5b506107d460048036038101906107cf9190612b98565b611762565b6040516107e191906136cf565b60405180910390f35b3480156107f657600080fd5b50610811600480360381019061080c9190612bc1565b61177a565b60405161081e9190613352565b60405180910390f35b34801561083357600080fd5b5061084e60048036038101906108499190612dff565b61180e565b005b34801561085c57600080fd5b5061087760048036038101906108729190612b98565b611830565b005b34801561088557600080fd5b506108a0600480360381019061089b9190612d3f565b6118b4565b005b3480156108ae57600080fd5b506108b7611938565b6040516108c491906136cf565b60405180910390f35b60007f80ac58cd000000000000000000000000000000000000000000000000000000007bffffffffffffffffffffffffffffffffffffffffffffffffffffffff1916827bffffffffffffffffffffffffffffffffffffffffffffffffffffffff1916148061099857507f5b5e139f000000000000000000000000000000000000000000000000000000007bffffffffffffffffffffffffffffffffffffffffffffffffffffffff1916827bffffffffffffffffffffffffffffffffffffffffffffffffffffffff1916145b806109a857506109a7826119ed565b5b9050919050565b6109b7611a57565b80601060006101000a81548160ff02191690831515021790555050565b6060600080546109e39061397f565b80601f0160208091040260200160405190810160405280929190818152602001828054610a0f9061397f565b8015610a5c5780601f10610a3157610100808354040283529160200191610a5c565b820191906000526020600020905b815481529060010190602001808311610a3f57829003601f168201915b5050505050905090565b6000610a7182611ad5565b6004600083815260200190815260200160002060009054906101000a900473ffffffffffffffffffffffffffffffffffffffff169050919050565b6000610ab78261138a565b90508073ffffffffffffffffffffffffffffffffffffffff168373ffffffffffffffffffffffffffffffffffffffff161415610b28576040517f08c379a0000000000000000000000000000000000000000000000000000000008152600401610b1f906135ef565b60405180910390fd5b8073ffffffffffffffffffffffffffffffffffffffff16610b47611b20565b73ffffffffffffffffffffffffffffffffffffffff161480610b765750610b7581610b70611b20565b61177a565b5b610bb5576040517f08c379a0000000000000000000000000000000000000000000000000000000008152600401610bac9061350f565b60405180910390fd5b610bbf8383611b28565b505050565b610bcc611a57565b80601160008473ffffffffffffffffffffffffffffffffffffffff1673ffffffffffffffffffffffffffffffffffffffff16815260200190815260200160002081905550600160126000828254610c2391906137b4565b925050819055505050565b600660009054906101000a900460ff1681565b6000600c54905090565b600a5481565b610c62610c5c611b20565b82611be1565b610ca1576040517f08c379a0000000000000000000000000000000000000000000000000000000008152600401610c98906136af565b60405180910390fd5b610cac838383611c76565b505050565b600f5481565b6000610cc1610c41565b90506000601160003373ffffffffffffffffffffffffffffffffffffffff1673ffffffffffffffffffffffffffffffffffffffff16815260200190815260200160002054111561101457601060009054906101000a900460ff16610d5a576040517f08c379a0000000000000000000000000000000000000000000000000000000008152600401610d519061366f565b60405180910390fd5b601160003373ffffffffffffffffffffffffffffffffffffffff1673ffffffffffffffffffffffffffffffffffffffff16815260200190815260200160002054821115610ddc576040517f08c379a0000000000000000000000000000000000000000000000000000000008152600401610dd39061364f565b60405180910390fd5b600e54821115610e21576040517f08c379a0000000000000000000000000000000000000000000000000000000008152600401610e189061356f565b60405180910390fd5b600f5482601360003373ffffffffffffffffffffffffffffffffffffffff1673ffffffffffffffffffffffffffffffffffffffff16815260200190815260200160002054610e6f91906137b4565b1115610eb0576040517f08c379a0000000000000000000000000000000000000000000000000000000008152600401610ea7906135af565b60405180910390fd5b81601160003373ffffffffffffffffffffffffffffffffffffffff1673ffffffffffffffffffffffffffffffffffffffff1681526020019081526020016000206000828254610eff9190613895565b925050819055506000600190505b828111610f9257610f29338284610f2491906137b4565b611edd565b82601360003373ffffffffffffffffffffffffffffffffffffffff1673ffffffffffffffffffffffffffffffffffffffff1681526020019081526020016000206000828254610f7891906137b4565b925050819055508080610f8a906139e2565b915050610f0d565b506000601160003373ffffffffffffffffffffffffffffffffffffffff1673ffffffffffffffffffffffffffffffffffffffff168152602001908152602001600020541415610ff657600160126000828254610fee9190613895565b925050819055505b81600c600082825461100891906137b4565b9250508190555061127c565b61101c610c41565b9050600660009054906101000a900460ff161561106e576040517f08c379a00000000000000000000000000000000000000000000000000000000081526004016110659061368f565b60405180910390fd5b600954611079610c41565b106110b9576040517f08c379a00000000000000000000000000000000000000000000000000000000081526004016110b09061354f565b60405180910390fd5b600b543410156110fe576040517f08c379a00000000000000000000000000000000000000000000000000000000081526004016110f59061362f565b60405180910390fd5b60008211611141576040517f08c379a0000000000000000000000000000000000000000000000000000000008152600401611138906134ef565b60405180910390fd5b600a54821115611186576040517f08c379a000000000000000000000000000000000000000000000000000000000815260040161117d906134cf565b60405180910390fd5b600954818361119591906137b4565b11156111d6576040517f08c379a00000000000000000000000000000000000000000000000000000000081526004016111cd9061360f565b60405180910390fd5b6111de6115b4565b73ffffffffffffffffffffffffffffffffffffffff163373ffffffffffffffffffffffffffffffffffffffff161461122b5781600b5461121e919061383b565b34101561122a57600080fd5b5b6000600190505b8281116112615761124e33828461124991906137b4565b611edd565b8080611259906139e2565b915050611232565b5081600c600082825461127491906137b4565b925050819055505b5050565b611288611a57565b600047116112cb576040517f08c379a00000000000000000000000000000000000000000000000000000000081526004016112c29061338f565b60405180910390fd5b6112d36115b4565b73ffffffffffffffffffffffffffffffffffffffff166108fc479081150290604051600060405180830381858888f19350505050158015611318573d6000803e3d6000fd5b50565b611323611a57565b61132b611efb565b565b6113488383836040518060200160405280600081525061168c565b505050565b601060019054906101000a900460ff1681565b601060009054906101000a900460ff1681565b6000600660009054906101000a900460ff16905090565b6000806002600084815260200190815260200160002060009054906101000a900473ffffffffffffffffffffffffffffffffffffffff169050600073ffffffffffffffffffffffffffffffffffffffff168173ffffffffffffffffffffffffffffffffffffffff161415611433576040517f08c379a000000000000000000000000000000000000000000000000000000000815260040161142a906135cf565b60405180910390fd5b80915050919050565b600b5481565b60008073ffffffffffffffffffffffffffffffffffffffff168273ffffffffffffffffffffffffffffffffffffffff1614156114b3576040517f08c379a00000000000000000000000000000000000000000000000000000000081526004016114aa906134af565b60405180910390fd5b600360008373ffffffffffffffffffffffffffffffffffffffff1673ffffffffffffffffffffffffffffffffffffffff168152602001908152602001600020549050919050565b611502611a57565b61150c6000611f5e565b565b6008805461151b9061397f565b80601f01602080910402602001604051908101604052809291908181526020018280546115479061397f565b80156115945780601f1061156957610100808354040283529160200191611594565b820191906000526020600020905b81548152906001019060200180831161157757829003601f168201915b505050505081565b600c5481565b6115aa611a57565b6115b2612024565b565b6000600660019054906101000a900473ffffffffffffffffffffffffffffffffffffffff16905090565b6060600180546115ed9061397f565b80601f01602080910402602001604051908101604052809291908181526020018280546116199061397f565b80156116665780601f1061163b57610100808354040283529160200191611666565b820191906000526020600020905b81548152906001019060200180831161164957829003601f168201915b5050505050905090565b60125481565b611688611681611b20565b8383612087565b5050565b61169d611697611b20565b83611be1565b6116dc576040517f08c379a00000000000000000000000000000000000000000000000000000000081526004016116d3906136af565b60405180910390fd5b6116e8848484846121f4565b50505050565b60606116f982611ad5565b6000611703612250565b90506000815111611723576040518060200160405280600081525061174e565b8061172d84612270565b60405160200161173e9291906132c7565b6040516020818303038152906040525b915050919050565b600e5481565b60095481565b60136020528060005260406000206000915090505481565b6000600560008473ffffffffffffffffffffffffffffffffffffffff1673ffffffffffffffffffffffffffffffffffffffff16815260200190815260200160002060008373ffffffffffffffffffffffffffffffffffffffff1673ffffffffffffffffffffffffffffffffffffffff16815260200190815260200160002060009054906101000a900460ff16905092915050565b611816611a57565b806008908051906020019061182c929190612972565b5050565b611838611a57565b600073ffffffffffffffffffffffffffffffffffffffff168173ffffffffffffffffffffffffffffffffffffffff1614156118a8576040517f08c379a000000000000000000000000000000000000000000000000000000000815260040161189f906133ef565b60405180910390fd5b6118b181611f5e565b50565b6118bc611a57565b60005b8282905081101561193357611920838383818110611906577f4e487b7100000000000000000000000000000000000000000000000000000000600052603260045260246000fd5b905060200201602081019061191b9190612b98565b61241d565b808061192b906139e2565b9150506118bf565b505050565b600d5481565b6119d481604051602401611952919061336d565b6040516020818303038152906040527f41304fac000000000000000000000000000000000000000000000000000000007bffffffffffffffffffffffffffffffffffffffffffffffffffffffff19166020820180517bffffffffffffffffffffffffffffffffffffffffffffffffffffffff8381831617835250505050612443565b50565b6001816000016000828254019250508190555050565b60007f01ffc9a7000000000000000000000000000000000000000000000000000000007bffffffffffffffffffffffffffffffffffffffffffffffffffffffff1916827bffffffffffffffffffffffffffffffffffffffffffffffffffffffff1916149050919050565b611a5f611b20565b73ffffffffffffffffffffffffffffffffffffffff16611a7d6115b4565b73ffffffffffffffffffffffffffffffffffffffff1614611ad3576040517f08c379a0000000000000000000000000000000000000000000000000000000008152600401611aca9061358f565b60405180910390fd5b565b611ade8161246c565b611b1d576040517f08c379a0000000000000000000000000000000000000000000000000000000008152600401611b14906135cf565b60405180910390fd5b50565b600033905090565b816004600083815260200190815260200160002060006101000a81548173ffffffffffffffffffffffffffffffffffffffff021916908373ffffffffffffffffffffffffffffffffffffffff160217905550808273ffffffffffffffffffffffffffffffffffffffff16611b9b8361138a565b73ffffffffffffffffffffffffffffffffffffffff167f8c5be1e5ebec7d5bd14f71427d1e84f3dd0314c0f7b2291e5b200ac8c7c3b92560405160405180910390a45050565b600080611bed8361138a565b90508073ffffffffffffffffffffffffffffffffffffffff168473ffffffffffffffffffffffffffffffffffffffff161480611c2f5750611c2e818561177a565b5b80611c6d57508373ffffffffffffffffffffffffffffffffffffffff16611c5584610a66565b73ffffffffffffffffffffffffffffffffffffffff16145b91505092915050565b8273ffffffffffffffffffffffffffffffffffffffff16611c968261138a565b73ffffffffffffffffffffffffffffffffffffffff1614611cec576040517f08c379a0000000000000000000000000000000000000000000000000000000008152600401611ce39061340f565b60405180910390fd5b600073ffffffffffffffffffffffffffffffffffffffff168273ffffffffffffffffffffffffffffffffffffffff161415611d5c576040517f08c379a0000000000000000000000000000000000000000000000000000000008152600401611d539061344f565b60405180910390fd5b611d678383836124d8565b611d72600082611b28565b6001600360008573ffffffffffffffffffffffffffffffffffffffff1673ffffffffffffffffffffffffffffffffffffffff1681526020019081526020016000206000828254611dc29190613895565b925050819055506001600360008473ffffffffffffffffffffffffffffffffffffffff1673ffffffffffffffffffffffffffffffffffffffff1681526020019081526020016000206000828254611e1991906137b4565b92505081905550816002600083815260200190815260200160002060006101000a81548173ffffffffffffffffffffffffffffffffffffffff021916908373ffffffffffffffffffffffffffffffffffffffff160217905550808273ffffffffffffffffffffffffffffffffffffffff168473ffffffffffffffffffffffffffffffffffffffff167fddf252ad1be2c89b69c2b068fc378daa952ba7f163c4a11628f55a4df523b3ef60405160405180910390a4611ed88383836124dd565b505050565b611ef78282604051806020016040528060008152506124e2565b5050565b611f0361253d565b6000600660006101000a81548160ff0219169083151502179055507f5db9ee0a495bf2e6ff9c91a7834c1ba4fdd244a5e8aa4e537bd38aeae4b073aa611f47611b20565b604051611f5491906132eb565b60405180910390a1565b6000600660019054906101000a900473ffffffffffffffffffffffffffffffffffffffff16905081600660016101000a81548173ffffffffffffffffffffffffffffffffffffffff021916908373ffffffffffffffffffffffffffffffffffffffff1602179055508173ffffffffffffffffffffffffffffffffffffffff168173ffffffffffffffffffffffffffffffffffffffff167f8be0079c531659141344cd1fd0a4f28419497f9722a3daafe3b4186f6b6457e060405160405180910390a35050565b61202c612586565b6001600660006101000a81548160ff0219169083151502179055507f62e78cea01bee320cd4e420270b5ea74000d11b0c9f74754ebdbfc544b05a258612070611b20565b60405161207d91906132eb565b60405180910390a1565b8173ffffffffffffffffffffffffffffffffffffffff168373ffffffffffffffffffffffffffffffffffffffff1614156120f6576040517f08c379a00000000000000000000000000000000000000000000000000000000081526004016120ed9061346f565b60405180910390fd5b80600560008573ffffffffffffffffffffffffffffffffffffffff1673ffffffffffffffffffffffffffffffffffffffff16815260200190815260200160002060008473ffffffffffffffffffffffffffffffffffffffff1673ffffffffffffffffffffffffffffffffffffffff16815260200190815260200160002060006101000a81548160ff0219169083151502179055508173ffffffffffffffffffffffffffffffffffffffff168373ffffffffffffffffffffffffffffffffffffffff167f17307eab39ab6107e8899845ad3d59bd9653f200f220920489ca2b5937696c31836040516121e79190613352565b60405180910390a3505050565b6121ff848484611c76565b61220b848484846125d0565b61224a576040517f08c379a0000000000000000000000000000000000000000000000000000000008152600401612241906133cf565b60405180910390fd5b50505050565b60606040518060600160405280603681526020016141c460369139905090565b606060008214156122b8576040518060400160405280600181526020017f30000000000000000000000000000000000000000000000000000000000000008152509050612418565b600082905060005b600082146122ea5780806122d3906139e2565b915050600a826122e3919061380a565b91506122c0565b60008167ffffffffffffffff81111561232c577f4e487b7100000000000000000000000000000000000000000000000000000000600052604160045260246000fd5b6040519080825280601f01601f19166020018201604052801561235e5781602001600182028036833780820191505090505b5090505b60008514612411576001826123779190613895565b9150600a856123869190613a2b565b603061239291906137b4565b60f81b8183815181106123ce577f4e487b7100000000000000000000000000000000000000000000000000000000600052603260045260246000fd5b60200101907effffffffffffffffffffffffffffffffffffffffffffffffffffffffffffff1916908160001a905350600a8561240a919061380a565b9450612362565b8093505050505b919050565b60006124296007612767565b90506124358282611edd565b61243f60076119d7565b5050565b60008151905060006a636f6e736f6c652e6c6f679050602083016000808483855afa5050505050565b60008073ffffffffffffffffffffffffffffffffffffffff166002600084815260200190815260200160002060009054906101000a900473ffffffffffffffffffffffffffffffffffffffff1673ffffffffffffffffffffffffffffffffffffffff1614159050919050565b505050565b505050565b6124ec8383612775565b6124f960008484846125d0565b612538576040517f08c379a000000000000000000000000000000000000000000000000000000000815260040161252f906133cf565b60405180910390fd5b505050565b612545611373565b612584576040517f08c379a000000000000000000000000000000000000000000000000000000000815260040161257b906133af565b60405180910390fd5b565b61258e611373565b156125ce576040517f08c379a00000000000000000000000000000000000000000000000000000000081526004016125c59061348f565b60405180910390fd5b565b60006125f18473ffffffffffffffffffffffffffffffffffffffff1661294f565b1561275a578373ffffffffffffffffffffffffffffffffffffffff1663150b7a0261261a611b20565b8786866040518563ffffffff1660e01b815260040161263c9493929190613306565b602060405180830381600087803b15801561265657600080fd5b505af192505050801561268757506040513d601f19601f820116820180604052508101906126849190612dd6565b60015b61270a573d80600081146126b7576040519150601f19603f3d011682016040523d82523d6000602084013e6126bc565b606091505b50600081511415612702576040517f08c379a00000000000000000000000000000000000000000000000000000000081526004016126f9906133cf565b60405180910390fd5b805181602001fd5b63150b7a0260e01b7bffffffffffffffffffffffffffffffffffffffffffffffffffffffff1916817bffffffffffffffffffffffffffffffffffffffffffffffffffffffff19161491505061275f565b600190505b949350505050565b600081600001549050919050565b600073ffffffffffffffffffffffffffffffffffffffff168273ffffffffffffffffffffffffffffffffffffffff1614156127e5576040517f08c379a00000000000000000000000000000000000000000000000000000000081526004016127dc9061352f565b60405180910390fd5b6127ee8161246c565b1561282e576040517f08c379a00000000000000000000000000000000000000000000000000000000081526004016128259061342f565b60405180910390fd5b61283a600083836124d8565b6001600360008473ffffffffffffffffffffffffffffffffffffffff1673ffffffffffffffffffffffffffffffffffffffff168152602001908152602001600020600082825461288a91906137b4565b92505081905550816002600083815260200190815260200160002060006101000a81548173ffffffffffffffffffffffffffffffffffffffff021916908373ffffffffffffffffffffffffffffffffffffffff160217905550808273ffffffffffffffffffffffffffffffffffffffff16600073ffffffffffffffffffffffffffffffffffffffff167fddf252ad1be2c89b69c2b068fc378daa952ba7f163c4a11628f55a4df523b3ef60405160405180910390a461294b600083836124dd565b5050565b6000808273ffffffffffffffffffffffffffffffffffffffff163b119050919050565b82805461297e9061397f565b90600052602060002090601f0160209004810192826129a057600085556129e7565b82601f106129b957805160ff19168380011785556129e7565b828001600101855582156129e7579182015b828111156129e65782518255916020019190600101906129cb565b5b5090506129f491906129f8565b5090565b5b80821115612a115760008160009055506001016129f9565b5090565b6000612a28612a238461370f565b6136ea565b905082815260208101848484011115612a4057600080fd5b612a4b84828561393d565b509392505050565b6000612a66612a6184613740565b6136ea565b905082815260208101848484011115612a7e57600080fd5b612a8984828561393d565b509392505050565b600081359050612aa081614167565b92915050565b60008083601f840112612ab857600080fd5b8235905067ffffffffffffffff811115612ad157600080fd5b602083019150836020820283011115612ae957600080fd5b9250929050565b600081359050612aff8161417e565b92915050565b600081359050612b1481614195565b92915050565b600081519050612b2981614195565b92915050565b600082601f830112612b4057600080fd5b8135612b50848260208601612a15565b91505092915050565b600082601f830112612b6a57600080fd5b8135612b7a848260208601612a53565b91505092915050565b600081359050612b92816141ac565b92915050565b600060208284031215612baa57600080fd5b6000612bb884828501612a91565b91505092915050565b60008060408385031215612bd457600080fd5b6000612be285828601612a91565b9250506020612bf385828601612a91565b9150509250929050565b600080600060608486031215612c1257600080fd5b6000612c2086828701612a91565b9350506020612c3186828701612a91565b9250506040612c4286828701612b83565b9150509250925092565b60008060008060808587031215612c6257600080fd5b6000612c7087828801612a91565b9450506020612c8187828801612a91565b9350506040612c9287828801612b83565b925050606085013567ffffffffffffffff811115612caf57600080fd5b612cbb87828801612b2f565b91505092959194509250565b60008060408385031215612cda57600080fd5b6000612ce885828601612a91565b9250506020612cf985828601612af0565b9150509250929050565b60008060408385031215612d1657600080fd5b6000612d2485828601612a91565b9250506020612d3585828601612b83565b9150509250929050565b60008060208385031215612d5257600080fd5b600083013567ffffffffffffffff811115612d6c57600080fd5b612d7885828601612aa6565b92509250509250929050565b600060208284031215612d9657600080fd5b6000612da484828501612af0565b91505092915050565b600060208284031215612dbf57600080fd5b6000612dcd84828501612b05565b91505092915050565b600060208284031215612de857600080fd5b6000612df684828501612b1a565b91505092915050565b600060208284031215612e1157600080fd5b600082013567ffffffffffffffff811115612e2b57600080fd5b612e3784828501612b59565b91505092915050565b600060208284031215612e5257600080fd5b6000612e6084828501612b83565b91505092915050565b612e72816138c9565b82525050565b612e81816138db565b82525050565b6000612e9282613771565b612e9c8185613787565b9350612eac81856020860161394c565b612eb581613b18565b840191505092915050565b6000612ecb8261377c565b612ed58185613798565b9350612ee581856020860161394c565b612eee81613b18565b840191505092915050565b6000612f048261377c565b612f0e81856137a9565b9350612f1e81856020860161394c565b80840191505092915050565b6000612f37601083613798565b9150612f4282613b29565b602082019050919050565b6000612f5a601483613798565b9150612f6582613b52565b602082019050919050565b6000612f7d603283613798565b9150612f8882613b7b565b604082019050919050565b6000612fa0602683613798565b9150612fab82613bca565b604082019050919050565b6000612fc3602583613798565b9150612fce82613c19565b604082019050919050565b6000612fe6601c83613798565b9150612ff182613c68565b602082019050919050565b6000613009602483613798565b915061301482613c91565b604082019050919050565b600061302c601983613798565b915061303782613ce0565b602082019050919050565b600061304f601083613798565b915061305a82613d09565b602082019050919050565b6000613072602983613798565b915061307d82613d32565b604082019050919050565b6000613095602883613798565b91506130a082613d81565b604082019050919050565b60006130b8602283613798565b91506130c382613dd0565b604082019050919050565b60006130db603e83613798565b91506130e682613e1f565b604082019050919050565b60006130fe602083613798565b915061310982613e6e565b602082019050919050565b6000613121601a83613798565b915061312c82613e97565b602082019050919050565b6000613144602983613798565b915061314f82613ec0565b604082019050919050565b6000613167602083613798565b915061317282613f0f565b602082019050919050565b600061318a602983613798565b915061319582613f38565b604082019050919050565b60006131ad601883613798565b91506131b882613f87565b602082019050919050565b60006131d0602183613798565b91506131db82613fb0565b604082019050919050565b60006131f3602d83613798565b91506131fe82613fff565b604082019050919050565b6000613216601683613798565b91506132218261404e565b602082019050919050565b6000613239603283613798565b915061324482614077565b604082019050919050565b600061325c601583613798565b9150613267826140c6565b602082019050919050565b600061327f601283613798565b915061328a826140ef565b602082019050919050565b60006132a2602e83613798565b91506132ad82614118565b604082019050919050565b6132c181613933565b82525050565b60006132d38285612ef9565b91506132df8284612ef9565b91508190509392505050565b60006020820190506133006000830184612e69565b92915050565b600060808201905061331b6000830187612e69565b6133286020830186612e69565b61333560408301856132b8565b81810360608301526133478184612e87565b905095945050505050565b60006020820190506133676000830184612e78565b92915050565b600060208201905081810360008301526133878184612ec0565b905092915050565b600060208201905081810360008301526133a881612f2a565b9050919050565b600060208201905081810360008301526133c881612f4d565b9050919050565b600060208201905081810360008301526133e881612f70565b9050919050565b6000602082019050818103600083015261340881612f93565b9050919050565b6000602082019050818103600083015261342881612fb6565b9050919050565b6000602082019050818103600083015261344881612fd9565b9050919050565b6000602082019050818103600083015261346881612ffc565b9050919050565b600060208201905081810360008301526134888161301f565b9050919050565b600060208201905081810360008301526134a881613042565b9050919050565b600060208201905081810360008301526134c881613065565b9050919050565b600060208201905081810360008301526134e881613088565b9050919050565b60006020820190508181036000830152613508816130ab565b9050919050565b60006020820190508181036000830152613528816130ce565b9050919050565b60006020820190508181036000830152613548816130f1565b9050919050565b6000602082019050818103600083015261356881613114565b9050919050565b6000602082019050818103600083015261358881613137565b9050919050565b600060208201905081810360008301526135a88161315a565b9050919050565b600060208201905081810360008301526135c88161317d565b9050919050565b600060208201905081810360008301526135e8816131a0565b9050919050565b60006020820190508181036000830152613608816131c3565b9050919050565b60006020820190508181036000830152613628816131e6565b9050919050565b6000602082019050818103600083015261364881613209565b9050919050565b600060208201905081810360008301526136688161322c565b9050919050565b600060208201905081810360008301526136888161324f565b9050919050565b600060208201905081810360008301526136a881613272565b9050919050565b600060208201905081810360008301526136c881613295565b9050919050565b60006020820190506136e460008301846132b8565b92915050565b60006136f4613705565b905061370082826139b1565b919050565b6000604051905090565b600067ffffffffffffffff82111561372a57613729613ae9565b5b61373382613b18565b9050602081019050919050565b600067ffffffffffffffff82111561375b5761375a613ae9565b5b61376482613b18565b9050602081019050919050565b600081519050919050565b600081519050919050565b600082825260208201905092915050565b600082825260208201905092915050565b600081905092915050565b60006137bf82613933565b91506137ca83613933565b9250827fffffffffffffffffffffffffffffffffffffffffffffffffffffffffffffffff038211156137ff576137fe613a5c565b5b828201905092915050565b600061381582613933565b915061382083613933565b9250826138305761382f613a8b565b5b828204905092915050565b600061384682613933565b915061385183613933565b9250817fffffffffffffffffffffffffffffffffffffffffffffffffffffffffffffffff048311821515161561388a57613889613a5c565b5b828202905092915050565b60006138a082613933565b91506138ab83613933565b9250828210156138be576138bd613a5c565b5b828203905092915050565b60006138d482613913565b9050919050565b60008115159050919050565b60007fffffffff0000000000000000000000000000000000000000000000000000000082169050919050565b600073ffffffffffffffffffffffffffffffffffffffff82169050919050565b6000819050919050565b82818337600083830152505050565b60005b8381101561396a57808201518184015260208101905061394f565b83811115613979576000848401525b50505050565b6000600282049050600182168061399757607f821691505b602082108114156139ab576139aa613aba565b5b50919050565b6139ba82613b18565b810181811067ffffffffffffffff821117156139d9576139d8613ae9565b5b80604052505050565b60006139ed82613933565b91507fffffffffffffffffffffffffffffffffffffffffffffffffffffffffffffffff821415613a2057613a1f613a5c565b5b600182019050919050565b6000613a3682613933565b9150613a4183613933565b925082613a5157613a50613a8b565b5b828206905092915050565b7f4e487b7100000000000000000000000000000000000000000000000000000000600052601160045260246000fd5b7f4e487b7100000000000000000000000000000000000000000000000000000000600052601260045260246000fd5b7f4e487b7100000000000000000000000000000000000000000000000000000000600052602260045260246000fd5b7f4e487b7100000000000000000000000000000000000000000000000000000000600052604160045260246000fd5b6000601f19601f8301169050919050565b7f42616c616e6365206973207a65726f2e00000000000000000000000000000000600082015250565b7f5061757361626c653a206e6f7420706175736564000000000000000000000000600082015250565b7f4552433732313a207472616e7366657220746f206e6f6e20455243373231526560008201527f63656976657220696d706c656d656e7465720000000000000000000000000000602082015250565b7f4f776e61626c653a206e6577206f776e657220697320746865207a65726f206160008201527f6464726573730000000000000000000000000000000000000000000000000000602082015250565b7f4552433732313a207472616e736665722066726f6d20696e636f72726563742060008201527f6f776e6572000000000000000000000000000000000000000000000000000000602082015250565b7f4552433732313a20746f6b656e20616c7265616479206d696e74656400000000600082015250565b7f4552433732313a207472616e7366657220746f20746865207a65726f2061646460008201527f7265737300000000000000000000000000000000000000000000000000000000602082015250565b7f4552433732313a20617070726f766520746f2063616c6c657200000000000000600082015250565b7f5061757361626c653a2070617573656400000000000000000000000000000000600082015250565b7f4552433732313a2061646472657373207a65726f206973206e6f74206120766160008201527f6c6964206f776e65720000000000000000000000000000000000000000000000602082015250565b7f4d696e7420616d6f756e742067726561746572207468616e206d6178206d696e60008201527f7420616d6f756e74000000000000000000000000000000000000000000000000602082015250565b7f4d696e7420616d6f756e74206d7573742062652067726561746572207468616e60008201527f2030000000000000000000000000000000000000000000000000000000000000602082015250565b7f4552433732313a20617070726f76652063616c6c6572206973206e6f7420746f60008201527f6b656e206f776e6572206e6f7220617070726f76656420666f7220616c6c0000602082015250565b7f4552433732313a206d696e7420746f20746865207a65726f2061646472657373600082015250565b7f43616e2774206d696e7420616e796d6f726520746f6b656e732e000000000000600082015250565b7f4d696e7420616d6f756e742067726561746572207468616e2077686974656c6960008201527f737420616d6f756e740000000000000000000000000000000000000000000000602082015250565b7f4f776e61626c653a2063616c6c6572206973206e6f7420746865206f776e6572600082015250565b7f596f75206861766520616c726561647920636c61696d65642077686974656c6960008201527f7374206c696d6974210000000000000000000000000000000000000000000000602082015250565b7f4552433732313a20696e76616c696420746f6b656e2049440000000000000000600082015250565b7f4552433732313a20617070726f76616c20746f2063757272656e74206f776e6560008201527f7200000000000000000000000000000000000000000000000000000000000000602082015250565b7f4d696e7420616d6f756e742067726561746572207468616e207468652072656d60008201527f61696e696e6720737570706c7900000000000000000000000000000000000000602082015250565b7f4e6f7420656e6f7567682065746865722073656e742e00000000000000000000600082015250565b7f4d696e7420616d6f756e742067726561746572207468616e20617661696c616260008201527f6c6520707572636861736520616d6f756e740000000000000000000000000000602082015250565b7f57686974656c697374206e6f7420656e61626c65640000000000000000000000600082015250565b7f436f6e7472616374206973207061757365640000000000000000000000000000600082015250565b7f4552433732313a2063616c6c6572206973206e6f7420746f6b656e206f776e6560008201527f72206e6f7220617070726f766564000000000000000000000000000000000000602082015250565b614170816138c9565b811461417b57600080fd5b50565b614187816138db565b811461419257600080fd5b50565b61419e816138e7565b81146141a957600080fd5b50565b6141b581613933565b81146141c057600080fd5b5056fe697066733a2f2f516d5742506f7068454377345178744e6b465a47587a65764756524b51354c5a58546e70795458546e71584652672fa2646970667358221220cf9500dc61b83e6f8879c33e1dd1bff1982872e3d4a9b95608046d7ef6a020b764736f6c63430008040033",
  "linkReferences": {},
  "deployedLinkReferences": {}
}